:020000020000FC
:100000000EEF0AB90E94660008E20BB900E20BB9D4
:100010000E94770008E20BB900E20BB908E80BB9BF
:1000200000E80BB90E94770008E00BB900E00BB9BB
:1000300008EE0BB900EE0BB90E94770008E00BB98F
:1000400000E00BB908E60BB900E60BB90E94770097
:1000500008E00BB900E00BB908E10BB900E10BB9FE
:100060000E9477000CE40BB904E40BB90CE80BB95F
:1000700004E80BB90E9477000CE40BB904E40BB957
:100080000CEF0BB904EF0BB90E9477000CE40BB92D
:1000900004E40BB90CEC0BB904EC0BB90E9477002B
:1000A0000CE40BB904E40BB90CE10BB904E10BB996
:1000B0000E9477000CEF0BB904EF0BB90CEA0BB9F7
:1000C00004EA0BB90E9477000C94640014E028EC59
:1000D00038EC0000000000000000000000000000FC
:1000E0003A95B9F72A95A1F71A9589F7189510E569
:1000F00028EC0000000000000000000000000000EC
:0A0100002A95B9F71A95A1F7189592
:00000001FF
