:020000020000FC
:040000000C94080054
:10000C000C94A10001E00093680000936B0005B90B
:10001C0007B90EEF0AB90E948F0008E20BB900E293
:10002C000BB90E94A70008E20BB900E20BB908E873
:10003C000BB900E80BB90E94A70008E00BB900E06F
:10004C000BB908EE0BB900EE0BB90E94A70008E043
:10005C000BB900E00BB908E60BB900E60BB90E942E
:10006C00A70008E00BB900E00BB908E10BB900E1FF
:10007C000BB90E94A7000CE40BB904E40BB90CE813
:10008C000BB904E80BB90E94A7000CE40BB904E40B
:10009C000BB90CEF0BB904EF0BB90E94A7000CE4E1
:1000AC000BB904E40BB90CEC0BB904EC0BB90E94C2
:1000BC00A7000CE40BB904E40BB90CE10BB904E197
:1000CC000BB90E94A700789405E003BF88950CE457
:1000DC000BB904E40BB90CE90BB904E90BB90E9498
:1000EC00A7000CE50BB904E50BB90CE00BB904E067
:1000FC000BB90E94A7000CE40BB904E40BB90CEE8D
:10010C000BB904EE0BB90E94A700000000000C9480
:10011C008B0014E028EC38EC00000000000000001C
:10012C000000000000003A95B9F72A95A1F71A953E
:10013C0089F73A9518950E948F000E948F00D89AE3
:10014C00189510E528EC00000000000000000000ED
:0E015C00000000002A95B9F72A95A1F7189522
:00000001FF
