:020000020000FC
:0200000020C01E
:02002C0032C0E0
:1000400040C00FEF0AB901E008B90FEF05B90FEF93
:1000500004B90DE0009381000DE30093890009E0ED
:100060000093880002E000936F000CE005BD01E002
:1000700000936E000AE0E4EEF0E0A0E0B1E015903D
:100080001D920A95E1F751E030E040E078940000DD
:10009000FECF309B04C033953A3061F018953A9505
:1000A0003F3F09F0189539E04A954F3F09F0189500
:1000B00049E0189530E043954A3009F0189540E042
:1000C000189523E025B9513039F0A42F1C911BB9A4
:1000D00055B951E018951895A32F1C911BB955B926
:0E00E00052E018957E306D79335B1F707F7390
:00000001FF
