:020000020000FC
:0200000020C01E
:100040005AC00FEF0AB90FE004B900E20BB90FE094
:1000500007B911E003E005BD01E000936E0078945C
:1000600007E0009320010BE0009321010DE00093D5
:1000700022010EE0009323010FE0009324010FE022
:10008000009325010FE0009326010FE00093270164
:1000900000E0009300010FE0009301010FE00093E6
:1000A000020108E10093030108E1009304010FE05D
:1000B000009305010FE00093060100E000930701A3
:1000C0000FEF009300010FEF009301010FEF00937A
:1000D00002010FEF009303010FEF009304010FEFF4
:1000E000009305010FEF009306010FEF0093070146
:1000F00000000000FDCF113011F04AC018950091AA
:1001000000010BB90091200105B90091240108B943
:10011000009100010BB90091210105B90091250161
:1001200008B9009100010BB90091220105B90091B5
:10013000260108B9009100010BB90091230105B90E
:100140000091270108B9009100010BB90091240129
:1001500005B90091200108B9009100010BB9009187
:10016000250105B90091210108B9009100010BB9E1
:100170000091260105B90091220108B90091000102
:100180000BB90091270105B90091230108B9189511
:10019000009100010BB90091200105B900912401E3
:1001A00008B9009101010BB90091210105B9009135
:1001B000250108B9009102010BB90091220105B98E
:1001C0000091260108B9009103010BB900912301A8
:1001D00005B90091270108B9009104010BB90091FC
:1001E000240105B90091200108B9009105010BB95E
:1001F0000091250105B90091210108B9009106017E
:100200000BB90091260105B90091220108B90091AE
:1002100007010BB90091270105B90091230108B925
:0202200018952F
:00000001FF
