:020000020000FC
:080000000C9422000C9468002E
:04002C000C947B00B5
:100040000C9482000BEF0AB904E00BB907E004B985
:1000500022D003E00093690001E00DBB03E005BD81
:1000600001E000936E0004EF0093890004E2009326
:10007000880000E0009380000CE00093810002E023
:1000800000936F0010E020E030E046E050E060E0D8
:1000900070E078941BC0B1E0A0E00EEF0D9304E691
:1000A0000D930DED0D9305EF0D9307E60D9307EB03
:1000B0000D930FEB0D9304EE0D930FEF0D9307EEE1
:1000C0000D930FE90C93B1E0A0E008950000FECF7E
:1000D0003A3071F013951A3009F0189510E0239515
:1000E0002A3009F0189520E033953A3009F0189538
:1000F0001AE02AE01895512F622F732F10E020E0AC
:1001000030E0189504E00BB9463019F0453039F06D
:100110000CC0A52F0C910BB945B945E01895A62F39
:100120000C910BB945B943E01895A72F0C910BB969
:0601300045B946E01895F8
:00000001FF
