:020000020000FC
:100000000FEF0AB901E00BB903E008B906B10370BC
:1000100031F00330A9F0013021F10230D9F109B1FA
:10002000013039F006950BB90E9463000130D1F719
:10003000EDCF000F0BB90E946300003899F3F9CFA0
:1000400009B1013039F006950BB90E9474000130F6
:10005000D1F7DCCF000F0BB90E947400003899F380
:10006000F9CF01E80BB90E9463000E94630002E42B
:100070000BB90E9463000E94630004E20BB90E9466
:1000800063000E94630008E10BB90E9463000E94B4
:100090006300BCCF08E10BB90E9463000E946300BB
:1000A00004E20BB90E9463000E94630002E40BB9F2
:1000B0000E9463000E94630001E80BB90E94630084
:1000C0000E946300A3CF14E02AEF38EC0000000088
:1000D000000000000000000000003A9541F42A955D
:1000E00029F41A9511F4089512E02AEF38EC000073
:1000F0000000000000000000000000003A95B9F781
:0A0100002A95A1F71A9589F70895D2
:00000001FF
