:100000000C9434000C9451000C9451000C94510049
:100010000C9451000C9451000C9451000C9451001C
:100020000C9451000C9451000C9451000C9451000C
:100030000C9451000C9451000C9451000C945100FC
:100040000C9451000C9451000C94D6030C94510064
:100050000C9451000C9451000C9451000C945100DC
:100060000C9451000C94510011241FBECFEFD8E026
:10007000DEBFCDBF12E0A0E0B1E0E6E7F2E102C0F2
:1000800005900D92AC38B107D9F723E0ACE8B2E0A7
:1000900001C01D92A533B207E1F70E9482050C94BE
:1000A00039090C94000087E690E09093C500809396
:1000B000C40088E98093C10086E08093C20008955F
:1000C0008093C6008091C00085FFFCCF08950F93F8
:1000D0001F93CF93DF938C01C0E0D0E003C00E9458
:1000E00060002196F801EC0FFD1F80818111F7CF90
:1000F000DF91CF911F910F9108952F923F924F92D0
:100100005F926F927F928F929F92AF92BF92CF92A7
:10011000DF92EF92FF920F931F93CF93DF9300D064
:1001200000D0CDB7DEB79A8389838DB79EB79C8305
:100130008B83E981FA8101900020E9F731974F0123
:1001400089819A81881A990A9924140191E0291ABF
:1001500031088DB79EB7881999090FB6F8949EBFDC
:100160000FBE8DBF0DB71EB70F5F1F4F412C512C17
:10017000320180918C0290918D02A0918E02B091FB
:100180008F02805F984DAF4FBF4F481659066A06E1
:100190007B0660F010928C0210928D0210928E02FB
:1001A00010928F0282E08093340371C080913403F7
:1001B000843011F410923403E4E9F2E0019000205D
:1001C000E9F73197CF01845992406C01E12CF12C71
:1001D000C114D104E104F10409F44DC087EB9BE0A4
:1001E0000197F1F700C000009FEF491A590A690A08
:1001F000790AE4E9F2E001900020E9F73197CF01B4
:1002000084599240A0E0B0E0C816D906EA06FB0681
:1002100091F527C0A101B8016F5F7F4FC8010E940F
:100220000D06F501EC56FD4F8081F801E20DF31D3E
:100230008083A40169817A81C8010E941F06892BED
:1002400061F410928C0210928D0210928E02109224
:100250008F0281E0809334031AC08FEFA81AB80A86
:1002600002C0A12CB12CC501A0E0B0E08C159D0509
:10027000AE05BF0578F287EB9BE00197F1F700C070
:1002800000009FEF491A590A690A790A72CF8B81D7
:100290009C810FB6F8949EBF0FBE8DBF0F900F903C
:1002A0000F900F90DF91CF911F910F91FF90EF90E2
:1002B000DF90CF90BF90AF909F908F907F906F9086
:1002C0005F904F903F902F90089580EAE4E9F2E02C
:1002D000DF011D928A95E9F7109293021092920223
:1002E00010929102109290020895CF93DF93EC0147
:1002F00084E080933403CE010E947D00809134031A
:100300008823C9F3DF91CF9108950E9475018091F0
:100310003403823011F081E0089580E008950F9356
:100320001F93CF93DF938C01EB010E946501C801FD
:100330000E94670089E892E00E946700CE010E9457
:100340008501DF91CF911F910F9108950F931F9316
:10035000CF93DF93CDB7DEB764970FB6F894DEBFC7
:100360000FBECDBF8E010F5F1F4F94E1F8011192B8
:100370009A95E9F71F928F9387E091E09F938F936F
:100380001F930F930E944F061C8A60E071E0C80122
:100390000E948F010F900F900F900F900F900F9071
:1003A00064960FB6F894DEBF0FBECDBFDF91CF913C
:1003B0001F910F9108950F931F93CF93DF93CDB7A4
:1003C000DEB764970FB6F894DEBF0FBECDBF8E01C7
:1003D0000F5F1F4F94E1F80111929A95E9F71F9270
:1003E0008F9385E191E09F938F931F930F930E94CA
:1003F0004F061C8A60E071E0C8010E948F010F90D7
:100400000F900F900F900F900F9064960FB6F89486
:10041000DEBF0FBECDBFDF91CF911F910F91089529
:10042000CF93C0E011C060E071E082E291E00E94F1
:100430008F0181110CC060E071E087E291E00E94C1
:100440008F01811104C0CF5FC53068F380E0CF9188
:1004500008950F931F93CF93DF93CDB7DEB76497C3
:100460000FB6F894DEBF0FBECDBF8E010F5F1F4FDA
:1004700094E1F80111929A95E9F71F928F9388E31E
:1004800091E09F938F931F930F930E944F061C8AB6
:1004900060E071E0C8010E948F010F900F900F90F3
:1004A0000F900F900F9064960FB6F894DEBF0FBEBA
:1004B000CDBFDF91CF911F910F9108950F931F939F
:1004C000CF93DF93CDB7DEB7EC970FB6F894DEBFCE
:1004D0000FBECDBF8E010F5F1F4F2CE3F8011192AD
:1004E0002A95E9F77F936F939F938F9385E491E02B
:1004F0009F938F931F930F930E944F061CAE68E546
:1005000071E0C8010E948F010FB6F894DEBF0FBEE4
:10051000CDBF811122C06BE671E084E992E00E94B8
:100520002D06892BE1F464E771E084E992E00E94F2
:100530002D06892BB1F46DE771E084E992E00E9409
:100540002D06892B81F466E871E084E992E00E942F
:100550002D06892B51F084E009C080E007C081E0BE
:1005600005C082E003C083E001C085E0EC960FB6D1
:10057000F894DEBF0FBECDBFDF91CF911F910F91D9
:10058000089560E071E08FE891E00E948F016CE9CE
:1005900071E084E992E00E942D06892BD1F465EA8E
:1005A00071E084E992E00E942D06892BA1F46EEAA5
:1005B00071E084E992E00E942D06892B71F467EBCB
:1005C00071E084E992E00E942D06892B41F083E0DE
:1005D000089580E0089581E0089582E0089584E020
:1005E0000895DF92EF92FF920F931F93CF93DF93C3
:1005F000CDB7DEB7EC970FB6F894DEBF0FBECDBF18
:10060000D82E162F072FF42EE52EFE0131968CE3FF
:10061000DF011D928A95E9F760EC71E089EC91E0C9
:100620000E948F018823A1F0EF92FF920F931F93F6
:1006300084ED91E09F938F93CE0101969F938F93CA
:100640000E944F060FB6F894DEBF0FBECDBF15C097
:10065000EF92FF920F931F931F92DF928EEE91E025
:100660009F938F93CE0101969F938F930E944F0685
:100670000FB6F894DEBF0FBECDBF6DE072E0CE01C5
:1006800001960E948F01811105C080913403823050
:1006900019F403C081E001C085E0EC960FB6F89430
:1006A000DEBF0FBECDBFDF91CF911F910F91FF90A5
:1006B000EF90DF900895EF92FF920F931F93CF93E7
:1006C000DF93CDB7DEB764970FB6F894DEBF0FBEE9
:1006D000CDBF8C01CE0101967C0184E1F70111921E
:1006E0008A95E9F7F80101900020E9F73197E01BBE
:1006F000F10B3296FF93EF9387E192E09F938F93F4
:10070000FF92EF920E944F061C8A65E272E0C701D9
:100710000E948F016DE272E0C8010E948F010F906C
:100720000F900F900F900F900F90811105C0809146
:100730003403823019F403C081E001C085E064967F
:100740000FB6F894DEBF0FBECDBFDF91CF911F91E2
:100750000F91FF90EF9008958091920290919302F3
:100760002091900230919102821B930B0895209169
:1007700090023091910280919202909193022817F9
:10078000390784F480919002909191029C012F5F2F
:100790003F4F3093910220939002FC01EC56FD4FA5
:1007A000808108950E94650180E008951F920F9254
:1007B0000FB60F9211242F938F939F93EF93FF9374
:1007C0002FB7F894E0919202F09193028091C600C5
:1007D000EC56FD4F80838091920290919302019696
:1007E000909393028093920280919202909193024F
:1007F000803A910541F41092930210929202109265
:100800009102109290022FBFFF91EF919F918F91D3
:100810002F910F900FBE0F901F9018958334F9F011
:100820008434B9F1823409F04EC04130510559F495
:1008300024B181E090E002C0880F991F6A95E2F729
:10084000822B84B9089524B181E090E002C0880F22
:10085000991F6A95E2F78095822384B90895413003
:10086000510559F427B181E090E002C0880F991F2B
:100870006A95E2F7822B87B9089527B181E090E06D
:1008800002C0880F991F6A95E2F78095822387B985
:1008900008954130510559F42AB181E090E002C039
:1008A000880F991F6A95E2F7822B8AB908952AB1B9
:1008B00081E090E002C0880F991F6A95E2F7809569
:1008C00082238AB908958FEF84B90895CF939C014C
:1008D000C62F95B5936095BDE1EBF0E090819360F4
:1008E00090832130310589F022303105D1F0232B5E
:1008F00031F584B5836884BD41E050E066E070E086
:1009000084E40E940E04C7BD1AC084B5836284BD0E
:1009100041E050E065E070E084E40E940E04C8BD50
:100920000EC0E0EBF0E080818368808341E050E01E
:1009300063E070E082E40E940E04C093B300CF91A4
:1009400008950F931F93CF93DF93CDB7DEB72C9706
:100950000FB6F894DEBF0FBECDBF8C010E946700BA
:1009600069E372E0C8010E942D06892B09F067C077
:1009700092C0F801E20FF31F4081423219F4009750
:1009800009F401968130910569F44A3358F44033F3
:1009900048F0A1E0B0E0AC0FBD1FA60FB71F4C930D
:1009A0006F5F7F4F8230910571F440814A3358F474
:1009B000403348F0A5E0B0E0AC0FBD1FA60FB71F55
:1009C0004C936F5F7F4F8330910571F440814A33C0
:1009D00058F4403348F0A9E0B0E0AC0FBD1FA60FBB
:1009E000B71F4C936F5F7F4F40814C3211F0423202
:1009F00019F58230910571F08330910599F08130BD
:100A00009105B9F4E1E0F0E0EC0FFD1FE60FF71FF0
:100A100010820FC0E5E0F0E0EC0FFD1FE60FF71FBE
:100A2000108207C0E9E0F0E0EC0FFD1FE60FF71FB2
:100A30001082019660E070E02F5F3F4F06C020E01B
:100A400030E060E070E080E090E0F801019000208C
:100A5000E9F73197E01BF10B2E173F0708F489CF18
:100A6000CE0101960E94E605BC0180E090E00E9464
:100A70006604CE0105960E94E605BC0181E090E087
:100A80000E946604CE0109960E94E605BC0182E040
:100A900090E00E9466042C960FB6F894DEBF0FBE5D
:100AA000CDBFDF91CF911F910F910895EF92FF92EB
:100AB0000F931F93CF93DF937C012FE789EA93E095
:100AC000215080409040E1F700C00000C0E0D0E03D
:100AD00009C08E010F5F1F4FCE0DDF1D0E94B703AF
:100AE0008883E8010E94AC031816190694F3C70125
:100AF0000E94A104CE01DF91CF911F910F91FF9031
:100B0000EF900895CF93DF93CDB7DEB7C659D109E3
:100B10000FB6F894DEBF0FBECDBF0E94530078948D
:100B20000E9410028823E1F383E00E94290280E002
:100B30000E94DB0180E00E94A6010E94C102833076
:100B400031F46FE372E088E492E00E945E0245E5D2
:100B500052E06AE572E080E00E94F1020E94C10268
:100B6000182F833031F46FE372E088E492E00E9442
:100B70005E02123039F445E552E06AE572E080E049
:100B80000E94F1028E010F5F1F4F86E9F80111925A
:100B90008A95E9F785E592E09F938F938AE592E045
:100BA0009F938F9386E692E09F938F931F930F936B
:100BB0000E944F06C8010E945B03C8010E945605AF
:100BC0000FB6F894DEBF0FBECDBFC8CFFC0188279B
:100BD0009927E89421912032E9F3293010F02E3042
:100BE000C8F32B3241F02D3239F4689404C00E94CE
:100BF0004706820F911D219120532A30C0F31EF425
:100C0000909581959F4F0895FB01DC0102C00190F2
:100C10000D9241505040D8F708956817790768F44D
:100C2000FB01DC01E40FF51FA40FB51F02C0029009
:100C30000E9241505040D8F708950C940406FB01E1
:100C4000DC014150504030F08D910190801919F431
:100C50000020B9F7881B990B0895FB01519155238A
:100C6000A9F0BF01DC014D9145174111E1F759F49D
:100C7000CD010190002049F04D9140154111C9F37B
:100C8000FB014111EFCF81E090E0019708957AE0F8
:100C9000979F902D879F802D910D11240895AEE090
:100CA000B0E0E5E5F6E00C9410090D891E8986E0B8
:100CB0008C831A8309838FEF9FE79E838D83AE0118
:100CC000475E5F4F6F89788DCE0101960E94710655
:100CD000EF81F885E00FF11F10822E96E4E00C946E
:100CE0002C09ABE0B0E0E7E7F6E00C9402096C01F8
:100CF0007B018A01FC0117821682838181FFCCC1AE
:100D0000CE0101963C01F6019381F70193FD859197
:100D100093FF81917F01882309F4BAC1853239F4A8
:100D200093FD859193FF81917F01853229F4B6016E
:100D300090E00E946808E7CF912C212C312CFFE134
:100D4000F315D8F08B3279F038F4803279F08332B1
:100D5000A1F4232D20611DC08D3261F0803369F430
:100D6000232D216016C0832D8260382EE32DE46090
:100D70003E2E2AC0F32DF8601DC037FC2DC020ED9B
:100D8000280F2A3040F08E32B9F436FC81C1232D71
:100D90002064322E19C036FE06C08AE0989E200DCF
:100DA0001124922E11C0EAE02E9E200D1124222E35
:100DB000F32DF0623F2E08C08C3621F4832D80681D
:100DC000382E02C0883641F4F70193FD859193FFD8
:100DD00081917F018111B3CF982F9F7D95549330DE
:100DE00028F40C5F1F4F9FE399830DC0833631F0C9
:100DF000833771F0833509F059C021C0F801808133
:100E000089830E5F1F4F88248394912C530113C054
:100E10002801F2E04F0E511CF801A080B18036FE8F
:100E200003C0692D70E002C06FEF7FEFC5010E9423
:100E30005D084C018201F32DFF773F2E16C028017B
:100E400022E0420E511CF801A080B18036FE03C0A2
:100E5000692D70E002C06FEF7FEFC5010E9452085C
:100E60004C01F32DF0683F2E820133FC1BC0822D14
:100E700090E088169906B0F4B60180E290E00E94F6
:100E800068082A94F4CFF50137FC859137FE8191EB
:100E90005F01B60190E00E94680821102A9421E0C9
:100EA000821A91088114910471F7E8C0843611F018
:100EB000893641F5F80137FE07C060817181828172
:100EC00093810C5F1F4F08C060817181072E000C59
:100ED000880B990B0E5F1F4FF32DFF763F2E97FF68
:100EE00009C090958095709561957F4F8F4F9F4F6A
:100EF000F0683F2E2AE030E0A3010E94A408882E6B
:100F0000861845C0853731F4232D2F7EB22E2AE076
:100F100030E025C0932D997FB92E8F36C1F018F49B
:100F2000883579F0B5C0803719F0883721F0B0C026
:100F3000E92FE061BE2EB4FE0DC0FB2DF460BF2E84
:100F400009C034FE0AC0292F2660B22E06C028E050
:100F500030E005C020E130E002C020E132E0F801DD
:100F6000B7FE07C060817181828193810C5F1F4F42
:100F700006C06081718180E090E00E5F1F4FA30189
:100F80000E94A408882E8618FB2DFF773F2E36FE80
:100F90000DC0232D2E7FA22E891458F434FE0BC0D1
:100FA00032FC09C0832D8E7EA82E05C0B82CA32C40
:100FB00003C0B82C01C0B92CA4FE0FC0FE01E80D7F
:100FC000F11D8081803321F49A2D997EA92E09C0CC
:100FD000A2FE06C0B394B39404C08A2D867809F0AB
:100FE000B394A3FC11C0A0FE06C0B21488F4280C70
:100FF000922C9B180EC0B21460F4B60180E290E00F
:101000000E946808B394F7CFB21418F42B1802C0EA
:10101000982C212CA4FE10C0B60180E390E00E9421
:101020006808A2FE17C0A1FC03C088E790E002C0D8
:1010300088E590E0B6010CC08A2D867859F0A1FEB3
:1010400002C08BE201C080E2A7FC8DE2B60190E015
:101050000E946808891438F4B60180E390E00E9489
:1010600068089A94F7CF8A94F301E80DF11D808106
:10107000B60190E00E9468088110F5CF222009F4A3
:1010800042CEB60180E290E00E9468082A94F6CF32
:10109000F6018681978102C08FEF9FEF2B96E2E1E8
:1010A0000C941E09FC010590615070400110D8F7A6
:1010B000809590958E0F9F1F0895FC0161507040A0
:1010C00001900110D8F7809590958E0F9F1F08957D
:1010D0000F931F93CF93DF93FB01238121FD03C067
:1010E0008FEF9FEF2CC022FF16C0468157812481CD
:1010F00035814217530744F4A081B1819D012F5FD0
:101100003F4F318320838C93268137812F5F3F4F60
:101110003783268314C08B01EC01FB010084F18529
:10112000E02D0995892BE1F6D80116968D919C91B9
:101130001797019617969C938E931697CE01DF9181
:10114000CF911F910F910895FA01AA27283051F1EC
:10115000203181F1E8946F936E7F6E5F7F4F8F4FE8
:101160009F4FAF4FB1E03ED0B4E03CD0670F781F47
:10117000891F9A1FA11D680F791F8A1F911DA11D2C
:101180006A0F711D811D911DA11D20D009F4689465
:101190003F912AE0269F11243019305D3193DEF60D
:1011A000CF010895462F4770405D4193B3E00FD0C3
:1011B000C9F7F6CF462F4F70405D4A3318F0495DAE
:1011C00031FD4052419302D0A9F7EACFB4E0A69591
:1011D0009795879577956795BA95C9F700976105B3
:1011E000710508959B01AC010A2E06945795479509
:1011F00037952795BA95C9F7620F731F841F951FFE
:10120000A01D08952F923F924F925F926F927F920E
:101210008F929F92AF92BF92CF92DF92EF92FF9206
:101220000F931F93CF93DF93CDB7DEB7CA1BDB0BB2
:101230000FB6F894DEBF0FBECDBF09942A88398857
:1012400048885F846E847D848C849B84AA84B9845E
:10125000C884DF80EE80FD800C811B81AA81B9816A
:10126000CE0FD11D0FB6F894DEBF0FBECDBFED017E
:061270000895F894FFCF81
:101276000D0A4F4B0D0A0041542B4349504D4F4424
:10128600453D25640041542B4349504D55583D2555
:101296006400415445300041540041542B434950A9
:1012A600434C4F53453D310041542B43574D4F441A
:1012B600453D25640041542B43574A41503D222564
:1012C60073222C22257322000D0A574946492043D2
:1012D6004F4E4E45435445440D0A002B43574A4151
:1012E600503A31002B43574A41503A32002B43576C
:1012F6004A41503A33002B43574A41503A34004151
:10130600542B43495053544154555300535441545C
:1013160055533A32005354415455533A33005354BB
:10132600415455533A34005354415455533A3500B9
:101336004349504D55583A300041542B4349504D7E
:1013460055583F0041542B43495053544152543D44
:1013560022544350222C222573222C2573004154FB
:101366002B43495053544152543D222564222C228A
:10137600544350222C222573222C257300434F4EB2
:101386004E4543540D0A0041542B43495053454E94
:10139600443D2564000D0A4F4B0D0A3E000D0A53CD
:1013A600454E44204F4B0D0A002B4950442C003823
:1013B600383832303436300054502D4C696E6B5FFD
:1013C600324333320035303031003137322E32304D
:1013D6002E31302E3600474554202F636F6C6F72C6
:1013E6000D0A485454502F312E310D0A486F73742C
:0C13F6003A2025733A25730D0A0D0A00F9
:00000001FF
