:020000020000FC
:040000000C94260036
:100048000C94D7000EEF0AB940E070E00E94160148
:1000580008E20BB900E20BB90E942B0108E20BB9C8
:1000680000E20BB908E80BB900E80BB90E942B01B4
:1000780008E00BB900E00BB908EE0BB900EE0BB9BC
:100088000E942B0108E00BB900E00BB908E60BB998
:1000980000E60BB90E942B0108E00BB900E00BB990
:1000A80008E10BB900E10BB940E00E942B0108E917
:1000B8000093C10007E60093C400789400E007B9F4
:1000C8000FE008B90FEF04B900E005B9000000001F
:1000D800000006B10F700E3041F00D3049F00B30C2
:1000E80051F0073059F00C946D0010E00C94850025
:1000F80014E00C94850018E00C9485001CE00C9426
:10010800850000E004B90FE005B90FEF07B900E07A
:1001180008B900000000000008E10BB903B10F7036
:100128000E3041F00D3051F00B3061F0073071F0B6
:100138000C94920000E0100F0C94AE0001E0100F38
:100148000C94AE0002E0100F0C94AE0003E0100F08
:100158000C94AE001F3001F17230A9F0713051F0EB
:1001680000C000E3010F0093C6000E94DC000E945B
:100178001001A4CF01E6010F0093C6000E94DC0025
:100188000E9410019BCF00E7010F0093C6000E9458
:10019800DC000E94100192CF7395733009F08ECF66
:1001A80070E000E08BCF0091C6000E94DC0018953B
:1001B8004395502F507F602F6F70660F660F660F44
:1001C800660F052F0C600BB9052F04600BB9062FBD
:1001D8000C600BB9062F04600BB900E00E942B01DC
:1001E800413119F0413261F0089508EC0BB900EC87
:1001F8000BB908E00BB900E00BB90E942B01F4CF52
:1002080008E00BB900E00BB908E10BB900E10BB944
:1002180040E00E942B01E8CF0E9416010E941601BF
:100228000C9462000E942B010E942B010E942B015A
:100238000E942B010E942B010E942B010E942B017E
:100248000E942B010E942B010E942B01189520E58A
:1002580038EC000000000000000000000000000072
:0A0268003A95B9F72A95A1F7189509
:00000001FF
