:020000020000FC
:100000000FEF0AB90BB900E007B90FE008B90FEF1D
:1000100004B900E005B900000000000006B10F704F
:100020000E3041F00D3049F00B3051F0073059F0EF
:100030000C940E0010E00C94260014E00C942600A2
:1000400018E00C9426001CE00C94260000E004B993
:100050000FE005B90FEF07B900E008B90000000094
:10006000000008E10BB903B10F700E3041F00D3004
:1000700051F00B3061F0073071F00C94330000E068
:10008000100F0C944F0001E0100F0C944F0002E091
:10009000100F0C944F0003E0100F0C944F001F3012
:1000A000F1F01E30F9F01D3009F11C3011F11B3058
:1000B00019F11A3029F1193039F1183041F117309E
:1000C00051F1163061F1153069F1143071F11330CE
:1000D00081F1123091F1113099F10C94A4000000DB
:1000E0000C94A8000EE0101B0C94A80013950C941F
:1000F000A80013950C94A80004E0101B0C94A80011
:1001000002E0101B0C94A80000000C94A80004E06E
:10011000100F0C94A80003E0101B0C94A8001A9573
:100120000C94A80013950C94A80007E0100F0C94F1
:10013000A80002E0101B0C94A80000000C94A8007A
:1001400002E0100F0C94A8000AE0100F0C94A80015
:100150001F30F1F01E3001F11D3011F11C3021F182
:100160001B3031F11A3041F1193051F1183061F181
:10017000173071F1163081F1153091F11430A1F181
:100180001330B1F11230C1F11130D1F10C940401EE
:1001900001E70BB90C94080109EF0BB90C940801A5
:1001A0000EE50BB90C94080109E30BB90C94080196
:1001B0000CE70BB90C94080107E70BB90C94080184
:1001C0000FE60BB90C9408010FE70BB90C9408016A
:1001D00007E00BB90C9408010DE70BB90C9408016A
:1001E0000DE60BB90C94080106E60BB90C94080156
:1001F0000FE40BB90C9408010BE50BB90C94080142
:1002000006E00BB90C9408010FE30BB90C9408013C
:100210000E940C010C94030024E630E548E2000043
:100220000000000000000000000000004A95B9F73F
:0C0230003A95A1F72A9589F70C94030079
:00000001FF
