:020000020000FC
:040000000C94080054
:10000C000C947E0001E00093680000936B0005B92E
:10001C0007B90EEF0AB90E946C0008E20BB900E2B6
:10002C000BB90E94870008E20BB900E20BB908E893
:10003C000BB900E80BB90E94870008E00BB900E08F
:10004C000BB908EE0BB900EE0BB90E94870008E063
:10005C000BB900E00BB908E60BB900E60BB90E942E
:10006C00870008E00BB900E00BB908E10BB900E11F
:10007C000BB90E9487000CE40BB904E40BB90CE833
:10008C000BB904E80BB90E9487000CE40BB904E42B
:10009C000BB90CEF0BB904EF0BB90E9487000CE401
:1000AC000BB904E40BB90CEC0BB904EC0BB90E94C2
:1000BC0087000CE40BB904E40BB90CE10BB904E1B7
:1000CC000BB90E94870078940C946A0014E028EC19
:1000DC0038EC0000000000000000000000000000F0
:1000EC003A95B9F72A95A1F71A9589F73A95189583
:1000FC000095017008B90E946C000E946C00D89A9F
:10010C00089510E528EC000000000000000000003D
:0E011C00000000002A95B9F72A95A1F7189562
:00000001FF
