:020000020000FC
:040000000C94260036
:100048000C9464000EEF0AB940E00E94990008E29F
:100058000BB900E20BB90E94AA0008E20BB900E252
:100068000BB908E80BB900E80BB90E94AA0008E030
:100078000BB900E00BB908EE0BB900EE0BB90E9402
:10008800AA0008E00BB900E00BB908E60BB900E6D6
:100098000BB90E94AA0008E00BB900E00BB908E10F
:1000A8000BB900E10BB940E00E94AA0008E90093EF
:1000B800C10007E60093C400789400000C94610026
:1000C8000091C6004031D1F0403219F14395502FCC
:1000D800507F602F6F70660F660F660F660F052FD3
:1000E8000C600BB9052F04600BB9062F0C600BB917
:1000F800062F04600BB90E94AA00189508EC0BB9EA
:1001080000EC0BB908E00BB900E00BB90E94AA009B
:10011800DECF08E00BB900E00BB908E10BB900E14C
:100128000BB940E00E94AA00D2CF14E028EC38ECCA
:1001380000000000000000000000000000003A95E8
:10014800B9F72A95A1F71A9589F7189510E528ECBB
:1001580000000000000000000000000000002A95D8
:08016800B9F71A95A1F71895EB
:00000001FF
