:020000020000FC
:040000000C942C0030
:040040000C947400A8
:100054000C9465000FEF0AB90FEF04B900E00BB977
:1000640005B90E944A0000E600937C0001E0009379
:100074007E000FEE00937A0003E005BD01E00093DB
:100084006E0010E020E030E054EC78940C946300AF
:10009400B1E0A0E00EE70D9300E30D930DE60D93A0
:1000A40009E70D9303E30D930BE50D930FE50D9312
:1000B40000E70D930FE70D9303E70C93B1E0A0E085
:1000C40008950000FECF60917900659F0E948E0024
:1000D4003F2D3F702E2D26952695269526951E2D6F
:1000E4001F70189500E00BB9463019F0453039F00F
:1000F4000CC0A12F0C910BB945B945E01895A22F5E
:100104000C910BB945B943E01895A32F0C910068E5
:100114000BB945B946E0189570E1FF24EE24DD24BF
:10012400FF27000C111CDD1CEE1CFF1C7A9509F442
:100134000895E0E182918D5F83FD80838081805DFD
:0A01440087FD8083ED30B1F7ECCFAA
:00000001FF
